:100000000C94E4000C940C010C940C010C940C0165
:100010000C940C010C940C010C940C010C940C012C
:100020000C940C010C940C010C946C050C94DE05E2
:100030000C940C010C940C010C940C010C940C010C
:100040000C940C010C940C010C940C010C940C01FC
:100050000C940C010C940C010C940C010C940E08E3
:100060000C940C010C940C010C940C010C940C01DC
:100070000C940C010C940C010C940C010C940C01CC
:100080000C940C010C940C010C940C010C940C01BC
:100090000C940C010C940C010C940C010C940C01AC
:1000A0000C940C010C940C010C940C01F602F90256
:1000B000E802EC02F2021A031A031A03FD0201031A
:1000C00005030B030F031A031503000000002300B0
:1000D000260029002C002F0000000000240027002B
:1000E0002A002D00300000000000250028002B0011
:1000F0002E00310004040404040304050202020279
:1001000004030202020206060606060604040202B0
:100110000204040408020110408040102040804086
:10012000800802040180402010020110801020404D
:1001300040200000000200090F0000030401000C31
:1001400000000000000000000000000000000000AF
:1001500000080B0002020201000904000001020273
:1001600000000524001001052401010104240206F9
:100170000524060001070581031000400904010061
:10018000020A000000070502024000000705830282
:100190004000000403090412010002EF0201404183
:1001A00023368000010102030141726475696E6F9C
:1001B000204C4C430041726475696E6F204C656F32
:1001C0006E6172646F00420911241FBECFEFDAE046
:1001D000DEBFCDBF11E0A0E0B1E0ECE0F3E102C092
:1001E00005900D92A832B107D9F721E0A8E2B1E05D
:1001F00001C01D92AB39B207E1F710E0C4EED0E0C8
:1002000004C02197FE010E947909C33ED107C9F7B6
:100210000E9458080C9484090C940000FC01809101
:100220004A01811103C08FEF9FEF08959FB7F894A3
:1002300082E08093E9002091F20030E0121613066C
:1002400014F421E030E02115310559F0289884E6B6
:10025000809349018091F10080838091F20088238E
:1002600019F09FBFC90108958BE68093E800F9CF8C
:100270002FB7F89483E08093E9009091E800892FEC
:10028000807295FF04C09091F20080E4891B2FBF1B
:1002900008958091410181110DC082E080933D015C
:1002A00084E080933E011092400110923F0181E072
:1002B000809341018DE391E0089540913701509181
:1002C0003801209135013091360142175307B4F4BB
:1002D0009091E8009570E1F39091E80092FD19C0CB
:1002E0008093F100809137019091380101968F73CE
:1002F0009927892B19F48EEF8093E80080913701BC
:10030000909138010196909338018093370181E0F4
:10031000089580E00895CF92DF92EF92FF920F93BD
:100320001F93CF93DF931F92CDB7DEB7182F062F01
:10033000E42E862F880F8E5F99830E945D0183E0F3
:100340000E945D01F12EC12E9981D92E8C2D8F191D
:10035000801798F4F601E7FE02C0849101C0808105
:100360000E945D01182F80E00E945D018123FFEF54
:10037000CF1ADF0A8111EACF01C081E00F90DF912F
:10038000CF911F910F91FF90EF90DF90CF90089544
:10039000DF92EF92FF920F931F93CF93DF93D82EAC
:1003A0008A017B01E40EF51EEB01CE15DF0571F02D
:1003B000D7FE03C0FE01849101C088810E945D01C7
:1003C00021968111F2CF8FEF9FEF01C0C801DF911D
:1003D000CF911F910F91FF90EF90DF9008950F93B1
:1003E0001F93CF93DF931F92CDB7DEB782E089834F
:1003F00042E450E061E571E080E80E94C8010E949B
:100400004901DC0112960D911C91139701151105FC
:1004100069F0D801ED91FC910280F381E02DBE01DD
:100420006F5F7F4FC801099597FF07C089810F90C3
:10043000DF91CF911F910F910895F80100851185EB
:10044000E5CF615030F02091F100FC01208301964E
:10045000F8CF289884E6809349010895CF92DF92DF
:10046000EF92FF920F931F93CF93DF936C017A016A
:100470008B01C0E0D0E0CE15DF0589F0D8016D9189
:100480008D01D601ED91FC910190F081E02DC60126
:100490000995892B11F47E0102C02196ECCFC7018A
:1004A000DF91CF911F910F91FF90EF90DF90CF9050
:1004B0000895CF93DF931F92CDB7DEB76983DC0138
:1004C000ED91FC910280F381E02D41E050E0BE010E
:1004D0006F5F7F4F09950F90DF91CF91089583E073
:1004E0008093E9008091F200882319F08AE38093D9
:1004F000E80008950E94380190E00895CF93DF93BB
:100500001F92CDB7DEB7FC018485958597FD05C0A8
:100510002FEF3FEF358724870BC0CE0101960E9455
:100520000E01019719F4898190E002C08FEF9FEFCF
:100530000F90DF91CF9108950F931F93CF93DF9387
:100540001F92CDB7DEB78C01FC018485958597FF9E
:100550000EC0CE0101960E940E01019719F4298167
:1005600030E002C02FEF3FEFF80135872487F80114
:10057000848595850F90DF91CF911F910F910895FC
:10058000FC018485958597FD0BC09FB7F89482E0A8
:100590008093E9008091F2009FBF90E0019608955A
:1005A0009FB7F89482E08093E9008091F2009FBFAA
:1005B00090E00895089580E090E0089590E0FC01B7
:1005C0003197EF30F105B0F5EA5AFF4F0C947909F5
:1005D000809180008F7703C0809180008F7D809311
:1005E0008000089580918000877FF9CF84B58F7750
:1005F00002C084B58F7D84BD0895809190008F776F
:1006000007C0809190008F7D03C080919000877F0C
:100610008093900008958091C0008F7703C08091EF
:10062000C0008F7D8093C00008958091C200877FB5
:100630008093C20008951F93CF93DF93282F30E05B
:10064000F901EE5CFE4F8491F901ED5EFE4FD4910D
:10065000F901EC50FF4FC491CC23C9F0162F811142
:100660000E94DE02EC2FF0E0EE0FFF1FEA51FF4F79
:10067000A591B4918FB7F894111105C09C91ED2FFD
:10068000E095E92302C0EC91ED2BEC938FBFDF9155
:10069000CF911F910895CF93DF9390E0FC01ED5E21
:1006A000FE4F2491FC01EC50FF4F8491882361F1AF
:1006B00090E0880F991FFC01E852FF4FC591D4913B
:1006C000FC01EA51FF4FA591B491611109C09FB798
:1006D000F8948881209582238883EC912E230BC087
:1006E000623061F49FB7F8943881822F809583231C
:1006F0008883EC912E2B2C939FBF06C08FB7F89464
:10070000E8812E2B28838FBFDF91CF9108953FB7CB
:10071000F89480912D0190912E01A0912F01B0911C
:10072000300126B5A89B05C02F3F19F00196A11DE9
:10073000B11D3FBFBA2FA92F982F8827820F911D77
:10074000A11DB11DBC01CD0142E0660F771F881FBE
:10075000991F4A95D1F70895CF92DF92EF92FF92B9
:100760000E9487036B017C010E948703DC01CB019F
:100770008C199D09AE09BF09883E9340A105B105BA
:1007800098F3FF90EF90DF90CF9008958F929F9213
:10079000AF92BF92CF92DF92EF92FF920F931F938F
:1007A000CF93DF936C015B017A0180910B01882369
:1007B00009F456C080914A01882309F451C0809100
:1007C0003B0180FF05C08091E00082608093E000E3
:1007D000E70110E00AEF83E0882E9AE3992E209734
:1007E000B1F10E943801811105C00150C9F10E9488
:1007F000AC03F5CF282F30E0C217D3070CF48C2FB1
:100800004FB7F8948092E9009091E80095FF1DC0E1
:10081000282F30E0C21BD30BF501982F915020F008
:1008200081918093F100FACFA20EB31E112319F02B
:100830009092E80009C08091E80085FD06C0909282
:10084000E80011E0209709F010E04FBFC8CF111168
:10085000C8CF5D9884E680933C011E141F0444F0C9
:1008600081E090E0F6019383828380E090E001C014
:10087000C701DF91CF911F910F91FF90EF90DF9013
:10088000CF90BF90AF909F908F9008956F927F927E
:100890008F929F92AF92BF92CF92DF92EF92FF9290
:1008A0000F931F93CF93DF9361E088E00E941B03B7
:1008B00060E086E00E941B038FE090E00197F1F773
:1008C00061E086E00E941B0360E088E00E941B0359
:1008D000C7E0D0E0812C912C90E4E92E91E0F92E34
:1008E00021E2C22E21E0D22E32E0A32E31E0B32E3F
:1008F0000FE010E0F7018491F6016490F501749027
:100900007720A9F081110E94DE02272D30E0220F0E
:10091000331F26533F4FF901A591B4918C91682262
:1009200031E020E009F430E0832F922F02C080E014
:1009300090E0092E000CAA0BBB0B0C2E04C0880FF4
:10094000991FAA1FBB1F0A94D2F7882A992A61E02F
:1009500087E00E941B03C8010197F1F760E087E080
:100960000E941B03219708F0C5CFC401DF91CF91EE
:100970001F910F91FF90EF90DF90CF90BF90AF90BD
:100980009F908F907F906F900895BC01009791F099
:10099000FC0101900020E9F73197AF01481B590B8A
:1009A000E0914B01F0914C010280F381E02D8BE44A
:1009B00091E0099480E090E008958F929F92AF9229
:1009C000BF920F931F93CF93DF93CDB7DEB7A1975D
:1009D0000FB6F894DEBF0FBECDBF19A2423008F4A7
:1009E0004AE08E010F5D1F4F842E912CA12CB12C5B
:1009F000A50194010E945709E62FB901CA010150CF
:100A00001109EA3014F4E05D01C0E95CD801EC930F
:100A1000232B242B252B61F7C8010E94C504A19626
:100A20000FB6F894DEBF0FBECDBFDF91CF911F91FF
:100A30000F91BF90AF909F908F900895CF92DF92CB
:100A4000EF92FF92CF93DF936B017C01E0914B011A
:100A5000F0914C010190F081E02D6DE28BE491E08A
:100A60000995EC0166277727CB016C197D098E0962
:100A70009F094AE00E94DD048C0F9D1FDF91CF91FA
:100A8000FF90EF90DF90CF9008950E947F09CF9361
:100A9000DF93C0E0D0E080913301909134010C2EBF
:100AA00002C0969587950A94E2F74AE080FF05C058
:100AB00061E070E080E090E003C060E070E0CB01B6
:100AC0000E94DD042196C830D10529F785E291E026
:100AD000DF91CF910C94C5041F920F920FB60F9225
:100AE00011248F939F938091E1009091E100937F77
:100AF0009093E10083FF0FC01092E90091E0909382
:100B0000EB001092EC0092E39093ED0010924A01FA
:100B100098E09093F00082FF20C093E09093E9006A
:100B20009091F200992319F09AE39093E800909144
:100B30003C01992339F090913C01915090933C01F4
:100B4000992389F190914901992339F090914901B4
:100B5000915090934901992341F184FF10C08091F5
:100B6000E2008E7E81608093E2008091E1008F7EC2
:100B70008093E10080913B018E7E806111C080FFF7
:100B800016C08091E2008E7E80618093E2008091A9
:100B9000E1008E7E8093E10080913B018E7E81603A
:100BA00080933B0104C05D9ACDCF289AD6CF9F9108
:100BB0008F910F900FBE0F901F9018951F920F925C
:100BC0000FB60F921124CF92DF92EF92FF920F9304
:100BD0001F932F933F934F935F936F937F938F93C5
:100BE0009F93AF93BF93EF93FF93CF93DF93CDB7D3
:100BF000DEB76C97DEBFCDBF1092E9008091E800B0
:100C000083FFEDC168E0CE0145960E94210282EF8C
:100C10008093E8008D8987FF05C09091E80090FFE0
:100C2000FCCF03C09EEF9093E800982F907609F0D8
:100C3000C6C09E892F89188D91110CC0803829F467
:100C400080913A018093F10002C01092F10010925D
:100C5000F10048C1422F50E0512B913051F48111E5
:100C600041C14130510509F03DC180913A018D7F6C
:100C70000BC0933061F4811135C14130510509F049
:100C800031C180913A01826080933A012BC1953045
:100C900041F48091E80080FFFCCF20682093E300BE
:100CA00021C1963009F05FC0EB8CFC8C1092E900FA
:100CB0001092380110923701123091F510923601DE
:100CC000109235010E94EF0199E0BE016F5F7F4FE6
:100CD000DB01E92F1D92EA95E9F799831A8391E0E8
:100CE0009E8390EA98879AEF9987209137013091F7
:100CF0003801275F3F4F3C832B838D831092E9009F
:100D00001092380110923701F0923601E0923501CD
:100D100049E050E080E00E94C8010E94EF01E2C07B
:100D2000F0923601E09235010E944901DC011296F1
:100D3000ED90FC901397E114F10409F4C0C0D701C1
:100D4000ED91FC910480F581E02DBE016B5E7F4F3B
:100D5000C7010995009719F00CF0C4C0C7C0F7018E
:100D6000E084F184E8CF973009F4C0C0983021F4D2
:100D700081E08093F100B6C0993009F0B3C0837070
:100D800009F0B4C0EFE1F1E081E021E036E39081C9
:100D9000992361F08093E9002093EB009191909367
:100DA000EC003093ED008F5F873089F78EE78093FA
:100DB000EA001092EA008F8980934A0193C08B8DDC
:100DC0009C8D1092E9001092380110923701909397
:100DD000360180933501898D811156C08E899D8998
:100DE000913A59F4813209F081C047E050E064E063
:100DF00071E080E00E94C80175C0913209F076C0B0
:100E0000833289F4888D90E0982F88272F89822B50
:100E1000A0E0B0E08093000190930101A093020153
:100E2000B09303015FC0803269F48091E80082FFD3
:100E3000FCCF67E084E091E00E9421028BEF809379
:100E4000E80006C0823209F04DC08F8980930B0103
:100E500080913901882319F0EEEFFAE002C0E0E05A
:100E6000F8E08091040190910501A0910601B091F4
:100E70000701803B9440A105B10509F07BC080913A
:100E80000B0180FF93C076C00E944901DC011296DD
:100E90000D911C9113970115110541F1D801ED91A8
:100EA000FC910190F081E02DBE016B5E7F4FC80187
:100EB0000995811117C0F80100851185ECCF11301B
:100EC00009F44EC0133091F48F89882309F445C08A
:100ED000823081F440E860E185EB91E00E948B0173
:100EE000882321F08EEF8093E80079C081E280931F
:100EF000EB0075C0813029F440E86BE089EA91E0AD
:100F0000EDCF833099F70E944901DC011296ED90F4
:100F1000FC9013978E010F5F1F4F6801E114F104DD
:100F200079F0D701ED91FC910680F781E02DB801B1
:100F3000C7010995080F111DF701E084F184EECF78
:100F4000D8011C92F60101900020E9F73197BF010A
:100F50006C197D0940E0C601C1CF63E971E002C0B0
:100F600067E971E06115710509F2FB01449150E0F8
:100F700080E840CF0FB6F894A89580916000886112
:100F800080936000109260000FBEA895EE3F2AE0AB
:100F9000F20739F08091FE0A9091FF0A91838083D5
:100FA000A1CF1092FF0A1092FE0A9CCFEE3F8AE07A
:100FB000F80731F0808191819093FF0A8093FE0AB7
:100FC00087E797E7918380839BE088E10FB6F894E9
:100FD000A895809360000FBE9093600083CF6C96BD
:100FE0000FB6F894DEBF0FBECDBFDF91CF91FF915A
:100FF000EF91BF91AF919F918F917F916F915F9191
:101000004F913F912F911F910F91FF90EF90DF90A3
:10101000CF900F900FBE0F901F9018951F920F92B8
:101020000FB60F9211242F933F938F939F93AF93FB
:10103000BF938091290190912A01A0912B01B09139
:101040002C013091280123E0230F2D3720F4019645
:10105000A11DB11D05C026E8230F0296A11DB11DDB
:10106000209328018093290190932A01A0932B01BA
:10107000B0932C0180912D0190912E01A0912F0110
:10108000B09130010196A11DB11D80932D01909367
:101090002E01A0932F01B0933001BF91AF919F918A
:1010A0008F913F912F910F900FBE0F901F90189529
:1010B000789484B5826084BD84B5816084BD85B533
:1010C000826085BD85B5816085BD80916E0081603F
:1010D00080936E00109281008091810082608093E5
:1010E00081008091810081608093810080918000E7
:1010F0008160809380008091910082608093910054
:101100008091910081608093910080919000816036
:10111000809390008091C10084608093C100809191
:10112000C10082608093C1008091C1008160809382
:10113000C1008091C30081608093C3008091C00092
:1011400082608093C0008091C20081608093C20061
:1011500080917A00846080937A0080917A00826026
:1011600080937A0080917A00816080937A008091E8
:101170007A00806880937A0010924A0110923A01B6
:1011800010923B018091D70081608093D70080EA64
:101190008093D80089B5806189BD89B5826089BD99
:1011A00009B400FEFDCF0E94AC038091D8008F7C73
:1011B00080618093D8008091E000807F8093E00080
:1011C0008091E1008E7E8093E1008DE08093E200CB
:1011D000559A209AEEEFFFE7859194918B3F9C4DB5
:1011E00019F481E0809339018FEF9FEF90935801BC
:1011F0008093570161E086E00E944B0361E088E044
:101200000E944B0361E087E00E944B0360E08EE0A8
:101210000E944B0360E087E00E941B0361E086E0D0
:101220000E941B030E944604909334018093330173
:101230000E944705809133019091340190933201CF
:1012400080933101C0E0D0E00E94460490933401C5
:10125000809333012091310130913201821793073D
:1012600051F00E9447058091330190913401909391
:101270003201809331010E94AC03209729F30E9430
:101280000000E2CFEBE4F1E01382128288EE93E0FB
:10129000A0E0B0E084839583A683B78380E191E0EA
:1012A000918380838FEF9FEF958784870895A1E2D4
:1012B0001A2EAA1BBB1BFD010DC0AA1FBB1FEE1FD0
:1012C000FF1FA217B307E407F50720F0A21BB30B1B
:1012D000E40BF50B661F771F881F991F1A9469F797
:1012E00060957095809590959B01AC01BD01CF01F3
:1012F0000895EE0FFF1F0590F491E02D099481E011
:0C13000090E0F8940C948409F894FFCF5E
:10130C00FFFFFFFF00E100000000000000000000F4
:10131C005902C6037A026F02C0027E029C0200C10F
:08132C0080810000003B00007D
:00000001FF
