:100000000C94E4000C940C010C940C010C940C0165
:100010000C940C010C940C010C940C010C940C012C
:100020000C940C010C940C010C9419060C948B0686
:100030000C940C010C940C010C940C010C940C010C
:100040000C940C010C940C010C940C010C940C01FC
:100050000C940C010C940C010C940C010C9498045D
:100060000C940C010C940C010C940C010C940C01DC
:100070000C940C010C940C010C940C010C940C01CC
:100080000C940C010C940C010C940C010C940C01BC
:100090000C940C010C940C010C940C010C940C01AC
:1000A0000C940C010C940C010C940C019001930124
:1000B000820186018C01B401B401B40197019B0156
:1000C0009F01A501A901B401AF01000000002300B8
:1000D000260029002C002F0000000000240027002B
:1000E0002A002D00300000000000250028002B0011
:1000F0002E00310004040404040304050202020279
:1001000004030202020206060606060604040202B0
:100110000204040408020110408040102040804086
:10012000800802040180402010020110801020404D
:1001300040200000000200090F0000030401000C31
:1001400000000000000000000000000000000000AF
:1001500000080B0002020201000904000001020273
:1001600000000524001001052401010104240206F9
:100170000524060001070581031000400904010061
:10018000020A000000070502024000000705830282
:100190004000000403090412010002EF0201404183
:1001A00023368000010102030141726475696E6F9C
:1001B000204C4C430041726475696E6F204C656F32
:1001C0006E6172646F001F0B11241FBECFEFDAE067
:1001D000DEBFCDBF22E0ACE4B1E001C01D92AF3084
:1001E000B207E1F711E0A0E0B1E0EAEEF6E102C00B
:1001F00005900D92AC34B107D9F710E0C4EED0E011
:1002000004C02197FE010E94680BC33ED107C9F7C5
:100210000E94BB080C94730B0C940000CF92DF92E9
:10022000EF92FF920F931F93CF93DF936C017A01AC
:100230008B01C0E0D0E0CE15DF0589F0D8016D91CB
:100240008D01D601ED91FC910190F081E02DC60168
:100250000995892B11F47E0102C02196ECCFC701CC
:10026000DF91CF911F910F91FF90EF90DF90CF9092
:100270000895CF93DF931F92CDB7DEB76983DC017A
:10028000ED91FC910280F381E02D41E050E0BE0150
:100290006F5F7F4F09950F90DF91CF91089583E0B5
:1002A0008093E9008091F200882319F08AE380931B
:1002B000E8000895FC018485958597FD0BC09FB7E4
:1002C000F89482E08093E9008091F2009FBF90E073
:1002D000019608959FB7F89482E08093E900809199
:1002E000F2009FBF90E00895089580E090E00895A7
:1002F00090E0FC013197EF30F105B0F5EA5AFF4F7D
:100300000C94680B809180008F7703C080918000EF
:100310008F7D80938000089580918000877FF9CF42
:1003200084B58F7702C084B58F7D84BD0895809198
:1003300090008F7707C0809190008F7D03C08091DF
:100340009000877F8093900008958091C0008F7700
:1003500003C08091C0008F7D8093C000089580917C
:10036000C200877F8093C20008951F93CF93DF93CD
:10037000282F30E0F901EE5CFE4F8491F901ED5E2B
:10038000FE4FD491F901EC50FF4FC491CC23C9F03A
:10039000162F81110E947801EC2FF0E0EE0FFF1F65
:1003A000EA51FF4FA591B4918FB7F894111105C090
:1003B0009C91ED2FE095E92302C0EC91ED2BEC939D
:1003C0008FBFDF91CF911F910895CF93DF9390E07E
:1003D000FC01ED5EFE4F2491FC01EC50FF4F849137
:1003E000882361F190E0880F991FFC01E852FF4FCC
:1003F000C591D491FC01EA51FF4FA591B4916111CF
:1004000009C09FB7F8948881209582238883EC9156
:100410002E230BC0623061F49FB7F8943881822F8D
:10042000809583238883EC912E2B2C939FBF06C04D
:100430008FB7F894E8812E2B28838FBFDF91CF915F
:1004400008953FB7F8948091510190915201A09185
:100450005301B091540126B5A89B05C02F3F19F058
:100460000196A11DB11D3FBFBA2FA92F982F882734
:10047000820F911DA11DB11DBC01CD0142E0660F8F
:10048000771F881F991F4A95D1F708958F929F92E1
:10049000AF92BF92CF92DF92EF92FF926B017C01FD
:1004A0000E9421024B015C01C114D104E104F1045A
:1004B000F1F00E942102DC01CB0188199909AA09F7
:1004C000BB09883E9340A105B10570F321E0C21A33
:1004D000D108E108F10888EE880E83E0981EA11C7F
:1004E000B11CC114D104E104F10419F7DDCFFF9070
:1004F000EF90DF90CF90BF90AF909F908F90089536
:100500006F927F928F929F92AF92BF92CF92DF9223
:10051000EF92FF920F931F93CF93DF9361E088E0F8
:100520000E94B50160E086E00E94B5018FE090E096
:100530000197F1F761E086E00E94B50160E088E094
:100540000E94B501C7E0D0E0812C912C90E4E92E07
:1005500091E0F92E21E2C22E21E0D22E32E0A32E2C
:1005600031E0B32E0FE010E0F7018491F6016490C2
:10057000F50174907720A9F081110E947801272D50
:1005800030E0220F331F26533F4FF901A591B4915C
:100590008C91682231E020E009F430E0832F922F23
:1005A00002C080E090E0092E000CAA0BBB0B0C2EC1
:1005B00004C0880F991FAA1FBB1F0A94D2F7882A6C
:1005C000992A61E087E00E94B501C8010197F1F71F
:1005D00060E087E00E94B501219708F0C5CFC40113
:1005E000DF91CF911F910F91FF90EF90DF90CF900F
:1005F000BF90AF909F908F907F906F9008956115FE
:10060000710579F0FB0101900020E9F73197AF0106
:10061000461B570BDC01ED91FC910280F381E02D2C
:10062000099480E090E008958F929F92AF92BF92DC
:10063000CF92DF92EF92FF920F931F93CF93DF93AE
:100640005C016B017A0180910B01882309F45BC086
:1006500080916A01882309F456C08091670180FF68
:1006600005C08091E00082608093E000E70110E027
:100670000AEF83E0882E9AE3992E2097D9F10E9401
:10068000080681110AC0015009F43DC061E070E024
:1006900080E090E00E944602F0CF282F30E0C217A1
:1006A000D3070CF48C2F4FB7F8948092E900909107
:1006B000E80095FF1DC0282F30E0C21BD30BF601C8
:1006C000982F915020F081918093F100FACFC20EC3
:1006D000D31E112319F09092E80009C08091E80020
:1006E00085FD06C09092E80011E0209709F010E027
:1006F0004FBFC3CF1111C3CF5D9884E680936801CB
:100700001E141F0444F081E090E0F501938382837E
:1007100080E090E001C0C701DF91CF911F910F9160
:10072000FF90EF90DF90CF90BF90AF909F908F9011
:1007300008950E94080690E00895CF93DF931F92DA
:10074000CDB7DEB7FC018485958597FD05C02FEFF9
:100750003FEF358724870BC0CE0101960E94DE054E
:10076000019719F4898190E002C08FEF9FEF0F90FD
:10077000DF91CF9108950F931F93CF93DF931F9233
:10078000CDB7DEB78C01FC018485958597FF0EC03F
:10079000CE0101960E94DE05019719F4298130E00F
:1007A00002C02FEF3FEFF80135872487F8018485D9
:1007B00095850F90DF91CF911F910F9108954091F2
:1007C00063015091640120916101309162014217EF
:1007D0005307B4F49091E8009570E1F39091E8002C
:1007E00092FD19C08093F1008091630190916401A2
:1007F00001968F739927892B19F48EEF8093E80067
:1008000080916301909164010196909364018093BB
:10081000630181E0089580E00895615030F02091F7
:10082000F100FC0120830196F8CF289884E680939C
:10083000690108954F925F926F927F92EF92FF92BB
:100840000F931F93CF93DF93CDB7DEB7A1970FB66A
:10085000F894DEBF0FBECDBF7C01FA01CB0119A217
:10086000223008F42AE08E010F5D1F4F422E512CDA
:10087000612C712CBF01A30192010E94460BF9016A
:10088000CA01015011096A3014F4605D01C0695C4D
:10089000D8016C93232B242B252B61F7B801C701BA
:1008A0000E94FF02A1960FB6F894DEBF0FBECDBF27
:1008B000DF91CF911F910F91FF90EF907F906F90FC
:1008C0005F904F900895CF93DF93C0E0D0E0809188
:1008D0005701909158010C2E02C0969587950A9465
:1008E000E2F72AE080FF05C041E050E060E070E000
:1008F00003C040E050E0BA018BE691E00E941A0488
:100900002196C830D10519F764E371E08BE691E0D8
:10091000DF91CF910C94FF022FB7F89460914D01B5
:1009200070914E0180914F01909150012FBF089519
:100930001F920F920FB60F9211242F933F938F9314
:100940009F93AF93BF9380914D0190914E01A091E1
:100950004F01B091500130914C0123E0230F2D370E
:1009600020F40196A11DB11D05C026E8230F0296B3
:10097000A11DB11D20934C0180934D0190934E0118
:10098000A0934F01B0935001809151019091520179
:10099000A0915301B09154010196A11DB11D809306
:1009A000510190935201A0935301B0935401BF9110
:1009B000AF919F918F913F912F910F900FBE0F900C
:1009C0001F9018958091070281110DC082E08093DD
:1009D000030284E080930402109206021092050242
:1009E00081E08093070283E092E008950E946E0BFD
:1009F000CF92DF92EF92FF920F931F93CF93DF93EB
:100A00001F92CDB7DEB7182F062FE42E862F880F42
:100A10008E5F99830E94DF0383E00E94DF03F12E43
:100A2000C12E9981D92E8C2D8F19801798F4F6013B
:100A3000E7FE02C0849101C080810E94DF03182F6D
:100A400080E00E94DF038123FFEFCF1ADF0A8111CC
:100A5000EACF01C081E00F90DF91CF911F910F91FC
:100A6000FF90EF90DF90CF900895DF92EF92FF928A
:100A70000F931F93CF93DF93D82E8A017B01E40E4F
:100A8000F51EEB01CE15DF0571F0D7FE03C0FE01A8
:100A9000849101C088810E94DF0321968111F2CFE9
:100AA0008FEF9FEF01C0C801DF91CF911F910F9190
:100AB000FF90EF90DF9008950F931F93CF93DF93F4
:100AC0001F92CDB7DEB782E0898342E450E061E552
:100AD00071E080E80E9435050E94E204DC01129674
:100AE0000D911C9113970115110569F0D801ED9135
:100AF000FC910280F381E02DBE016F5F7F4FC80142
:100B0000099597FF07C089810F90DF91CF911F91C1
:100B10000F910895F80100851185E5CFCF92DF92FE
:100B2000EF92FF92CF93DF936B017C01E0916B0119
:100B3000F0916C010190F081E02D6DE28BE691E087
:100B40000995EC0144275527BA014C195D096E0936
:100B50007F092AE08BE691E00E941A048C0F9D1F0A
:100B6000DF91CF91FF90EF90DF90CF9008958F921B
:100B70009F92AF92BF92CF92DF92EF92FF926B0162
:100B80007C010E948C044B015C01C60ED71EE81E3E
:100B9000F91E0E948C04681579058A059B0528F0CA
:100BA000C616D706E806F906A0F7FF90EF90DF908B
:100BB000CF90BF90AF909F908F900895FC0180914F
:100BC0006A01811103C08FEF9FEF08959FB7F894DA
:100BD00082E08093E9002091F20030E012161306C3
:100BE00014F421E030E02115310559F0289884E60D
:100BF000809369018091F10080838091F2008823C5
:100C000019F09FBFC90108958BE68093E800F9CFE2
:100C10002FB7F89483E08093E9009091E800892F42
:100C2000807295FF04C09091F20080E4891B2FBF71
:100C300008951F920F920FB60F9211248F939F93D6
:100C40008091E1009091E100937F9093E10083FF18
:100C50000FC01092E90091E09093EB001092EC002D
:100C600092E39093ED0010926A0198E09093F00067
:100C700082FF20C093E09093E9009091F2009923C5
:100C800019F09AE39093E80090916801992339F064
:100C900090916801915090936801992389F1909106
:100CA0006901992339F090916901915090936901FC
:100CB000992341F184FF10C08091E2008E7E816013
:100CC0008093E2008091E1008F7E8093E10080912B
:100CD00067018E7E806111C080FF16C08091E200A6
:100CE0008E7E80618093E2008091E1008E7E809311
:100CF000E100809167018E7E81608093670104C06E
:100D00005D9ACDCF289AD6CF9F918F910F900FBE2D
:100D10000F901F9018951F920F920FB60F921124EB
:100D2000CF92DF92EF92FF920F931F932F933F93F7
:100D30004F935F936F937F938F939F93AF93BF93E3
:100D4000EF93FF93CF93DF93CDB7DEB76C97DEBF02
:100D5000CDBF1092E9008091E80083FFEDC168E00B
:100D6000CE0145960E940D0482EF8093E8008D89A4
:100D700087FF05C09091E80090FFFCCF03C09EEF75
:100D80009093E800982F907609F0C6C09E892F892D
:100D9000188D91110CC0803829F4809166018093E0
:100DA000F10002C01092F1001092F10048C1422FF0
:100DB00050E0512B913051F4811141C14130510526
:100DC00009F03DC1809166018D7F0BC0933061F4C5
:100DD000811135C14130510509F031C18091660161
:100DE0008260809366012BC1953041F48091E800C8
:100DF00080FFFCCF20682093E30021C1963009F0EA
:100E00005FC0EB8CFC8C1092E90010926401109290
:100E10006301123091F510926201109261010E94FB
:100E20005C0599E0BE016F5F7F4FDB01E92F1D92EA
:100E3000EA95E9F799831A8391E09E8390EA98876F
:100E40009AEF99872091630130916401275F3F4FAA
:100E50003C832B838D831092E900109264011092E1
:100E60006301F0926201E092610149E050E080E0AC
:100E70000E9435050E945C05E2C0F0926201E0929A
:100E800061010E94E204DC011296ED90FC90139740
:100E9000E114F10409F4C0C0D701ED91FC91048084
:100EA000F581E02DBE016B5E7F4FC701099500976C
:100EB00019F00CF0C4C0C7C0F701E084F184E8CF9A
:100EC000973009F4C0C0983021F481E08093F1009C
:100ED000B6C0993009F0B3C0837009F0B4C0EDE03A
:100EE000F1E081E021E036E39081992361F0809385
:100EF000E9002093EB0091919093EC003093ED008A
:100F00008F5F873089F78EE78093EA001092EA00BE
:100F10008F8980936A0193C08B8D9C8D1092E9001C
:100F200010926401109263019093620180936101B9
:100F3000898D811156C08E899D89913A59F48132EB
:100F400009F081C047E050E064E071E080E00E9479
:100F5000350575C0913209F076C0833289F4888DE9
:100F600090E0982F88272F89822BA0E0B0E0809313
:100F7000000190930101A0930201B09303015FC0AF
:100F8000803269F48091E80082FFFCCF67E084E062
:100F900091E00E940D048BEF8093E80006C082323E
:100FA00009F04DC08F8980930B01809165018823E2
:100FB00019F0EEEFFAE002C0E0E0F8E08091040101
:100FC00090910501A0910601B0910701803B9440EA
:100FD000A105B10509F07BC080910B0180FF93C092
:100FE00076C00E94E204DC0112960D911C911397C9
:100FF0000115110541F1D801ED91FC910190F081AD
:10100000E02DBE016B5E7F4FC8010995811117C0AD
:10101000F80100851185ECCF113009F44EC0133072
:1010200091F48F89882309F445C0823081F440E827
:1010300060E185EB91E00E94F804882321F08EEFB7
:101040008093E80079C081E28093EB0075C0813025
:1010500029F440E86BE089EA91E0EDCF833099F71D
:101060000E94E204DC011296ED90FC9013978E0131
:101070000F5F1F4F6801E114F10479F0D701ED9182
:10108000FC910680F781E02DB801C7010995080F92
:10109000111DF701E084F184EECFD8011C92F60116
:1010A00001900020E9F73197BF016C197D0940E0FC
:1010B000C601C1CF63E971E002C067E971E0611563
:1010C000710509F2FB01449150E080E840CF0FB672
:1010D000F894A895809160008861809360001092D8
:1010E00060000FBEA895EE3F2AE0F20739F080912C
:1010F000FE0A9091FF0A91838083A1CF1092FF0A8C
:101100001092FE0A9CCFEE3F8AE0F80731F0808112
:1011100091819093FF0A8093FE0A87E797E7918376
:1011200080839BE088E10FB6F894A89580936000D7
:101130000FBE9093600083CF6C960FB6F894DEBF1D
:101140000FBECDBFDF91CF91FF91EF91BF91AF91D6
:101150009F918F917F916F915F914F913F912F91CF
:101160001F910F91FF90EF90DF90CF900F900FBEE7
:101170000F901F901895789484B5826084BD84B5D3
:10118000816084BD85B5826085BD85B5816085BD82
:1011900080916E00816080936E001092810080913A
:1011A00081008260809381008091810081608093C2
:1011B0008100809180008160809380008091910007
:1011C0008260809391008091910081608093910072
:1011D000809190008160809390008091C100846034
:1011E0008093C1008091C10082608093C100809192
:1011F000C10081608093C1008091C30081608093B1
:10120000C3008091C00082608093C0008091C200C2
:1012100081608093C20080917A00846080937A001C
:1012200080917A00826080937A0080917A00816058
:1012300080937A0080917A00806880937A0010927F
:101240006A0110926601109267018091D700816057
:101250008093D70080EA8093D80089B5806189BDEA
:1012600089B5826089BD09B400FEFDCF61E070E000
:1012700080E090E00E9446028091D8008F7C8061DF
:101280008093D8008091E000807F8093E00080917F
:10129000E1008E7E8093E1008DE08093E200559A1C
:1012A000209AEEEFFFE7859194918B3F9C4D19F4C6
:1012B00081E0809365011092FF011092000210926C
:1012C0000102109202021092BD011092BE01109212
:1012D000BF011092C00168EB7BE080E090E00E94CB
:1012E000B7058BE691E09093FE018093FD01CBE181
:1012F000D0E0F0900B016AE070E080E090E00E94A6
:101300004602F11009C0219739F064E670E080E0F0
:1013100090E00E944602EDCFE091FD01F091FE01C8
:10132000CFEFDFEFD587C4870E948C046093BD01A7
:101330007093BE018093BF019093C00165E271E09C
:101340008091FD019091FE010E94FF026AE070E031
:1013500080E090E00E94B70581E08093D101D093B6
:101360007801C093770161E086E00E94E50161E0C9
:1013700088E00E94E50161E087E00E94E50160E00D
:101380008EE00E94E50160E087E00E94B50161E027
:1013900086E00E94B5010E948002909358018093DC
:1013A00057010E94630480915701909158019093D6
:1013B000560180935501C0E0D0E084EF882E992437
:1013C0009394A12CB12C0E948C04672B682B692B61
:1013D00041F40E948C04623071058105910508F486
:1013E0000BC10E948C0460935D0170935E01809339
:1013F0005F0190936001C0905901D0905A01E09034
:101400005B01F0905C016C157D058E059F0540F435
:101410006093590170935A0180935B0190935C0132
:10142000C0905901D0905A01E0905B01F0905C01AE
:101430009B01AC012C193D094E095F0969017A0134
:101440003AEFC316D104E104F10408F4D5C0609367
:10145000590170935A0180935B0190935C018092D3
:10146000C9019092CA01A092CB01B092CC01109216
:10147000CD011092CE011092CF011092D001809137
:10148000C1019091C201A091C301B091C4018093A8
:10149000C5019093C601A093C701B093C8010E94F3
:1014A0008C046093C1017093C2018093C301909337
:1014B000C4010E948C046093BD017093BE018093AF
:1014C000BF019093C0010E948C046B017C0167E313
:1014D00071E08091FD019091FE010E94FF022AE0DF
:1014E00041E050E060E070E08091FD019091FE01EC
:1014F0000E941A046EE371E08091FD019091FE015B
:101500000E94FF022AE0B701A6018091FD0190919F
:10151000FE010E941A0460E471E08091FD01909147
:10152000FE010E94FF028091C1019091C201A09131
:10153000C301B091C401B701A601481B590B6A0B46
:101540007B0B2AE08091FD019091FE010E941A041C
:1015500060E471E08091FD019091FE010E94FF0224
:101560004091C1015091C2016091C3017091C401C9
:101570008091C5019091C601A091C701B091C801A9
:10158000481B590B6A0B7B0B2AE08091FD0190915F
:10159000FE010E941A0462E471E08091FD019091C5
:1015A000FE010E94FF020E948C04AB01BC012AE0F4
:1015B0008091FD019091FE010E941A04E090FD01CE
:1015C000F090FE0164E471E0C7010E94FF0264E351
:1015D00071E0C7010E94FF0262E070E080E090E0ED
:1015E0000E94B7050E948C046093C1017093C201F0
:1015F0008093C3019093C4010E948002909358018C
:10160000809357012091550130915601821793071D
:1016100051F00E946304809157019091580190937A
:1016200056018093550161E070E080E090E00E94F7
:101630004602209709F4C7CE0E940000C4CEEBE614
:10164000F1E01382128288EE93E0A0E0B0E08483A0
:101650009583A683B78387E191E0918380838FEFA1
:101660009FEF95878487EBEBF1E016821782108657
:101670001186128613861486158616861786108A9A
:10168000118A128A138A148A158A0895A1E21A2EE1
:10169000AA1BBB1BFD010DC0AA1FBB1FEE1FFF1F16
:1016A000A217B307E407F50720F0A21BB30BE40B66
:1016B000F50B661F771F881F991F1A9469F76095AD
:1016C0007095809590959B01AC01BD01CF01089567
:1016D000EE0FFF1F0590F491E02D099481E090E05A
:0A16E000F8940C94730BF894FFCFFC
:1016EA00FFFFFFFF00E100000000000000C1808151
:1016FA00000000000000003901140399034F015A49
:10170A00019D03BB03564D4450565F317C315F56F1
:10171A004D4450560D0A00564D4450455F003A322A
:0C172A003A007C005F564D445045000022
:00000001FF
